:1000000033C000004CC000004AC0000048C00000DF
:1000100046C0000044C0000042C0000040C00000D4
:100020003EC000003CC000003AC0000038C00000E4
:1000300036C0000034C0000032C0000030C00000F4
:100040002EC000002CC000002AC0000028C0000004
:1000500026C0000024C0000022C0000020C0000014
:100060001EC000001CC0000011241FBECFEFD8E04E
:10007000DEBFCDBF11E0A0E0B1E0E0EEFBE002C0EA
:1000800005900D92A836B107D9F721E0A8E6B1E0B6
:1000900001C01D92A23CB207E1F739D29FC5B0CF93
:1000A0008EBD00000DB407FEFDCF8EB508952A98D1
:1000B0008068F6DF80E0F4DF2A9A0895F8CF08958B
:1000C0006F927F928F929F92AF92BF92CF92DF9268
:1000D000EF92FF920F931F93CF93DF9300D000D046
:1000E00000D0CDB7DEB74C015B013A018CE0DFDF19
:1000F00089831F928F938EE091E09F938F9372D2AA
:100100006E0182E0C80ED11C0F900F900F900F90DF
:1001100001E010E00F2EFBE1EF2EF1E0FF2EF02DBD
:1001200080E0BEDFF60181936F011F928F931F93D2
:100130000F93FF92EF9256D20F5F1F4F0F900F90C9
:100140000F900F900F900F900630110549F78A819C
:1001500090E0982F88272981822BF4019183808356
:100160008C8190E0982F88272B81822BF501918339
:1001700080838E8190E0982F88272D81822BF30138
:100180009183808326960FB6F894DEBF0FBECDBF55
:10019000DF91CF911F910F91FF90EF90DF90CF9063
:1001A000BF90AF909F908F907F906F900895CF9267
:1001B000DF92EF92FF920F931F93CF93DF9300D0C4
:1001C00000D000D0CDB7DEB76C017B018A011A8266
:1001D00019821C821B821E821D82AE014B5F5F4F03
:1001E000BE016D5F7F4FCE0101966ADF89819A81E2
:1001F000092E000CAA0BBB0BF60180839183A2830E
:10020000B3838B819C81092E000CAA0BBB0BF701D9
:1002100080839183A283B3838D819E81092E000CFC
:10022000AA0BBB0BF80180839183A283B38326962C
:100230000FB6F894DEBF0FBECDBFDF91CF911F91F7
:100240000F91FF90EF90DF90CF9008952A9A229A15
:100250008CB580618CBD8CB580648CBD259A239A49
:1002600010926901109268010895CF93C82F8730CA
:1002700061F42091C0013091C10147E050E061E09C
:1002800070E089E291E07CD10BC08A3011F48DE0FE
:10029000ECDFE0ECF0E0808185FFFDCFC093C6008D
:1002A00080E090E0CF9108956F927F928F929F921D
:1002B000AF92BF92CF92DF92EF92FF920F931F9374
:1002C000CF93DF932091BA013091BB01232B09F02A
:1002D000CCC08C010F2EFAE68F2EF1E09F2EF02D70
:1002E000C0ECD0E00F2EF6ECCF2ED12CF02D540127
:1002F0000F2EF9E66F2EF1E07F2EF02D88818823F6
:10030000ECF7888184FDC4C0888183FDC4C0F601F8
:1003100080818D3011F08A3061F48AE0F4018083AD
:10032000B801A3DF8AE691E09093BB018093BA0104
:100330009CC0893039F090EE980F9F3520F0803ABC
:10034000A8F001C080E2F9EB8F16F1E09F0621F4DE
:10035000B80187E08ADFD2CF74019FEFE91AF90A6A
:10036000F4018083B80181DF4701C8CF8231B9F140
:1003700030F4833009F492C08830E9F0BFCF873180
:1003800029F08F37C1F0853179F0B8CFFAE68F16B2
:10039000F1E09F0609F008F4B1CFF40131978081B4
:1003A000803209F04AC0AACF8AE6881681E0980612
:1003B00009F070F5A3CF9AE6891691E0990609F045
:1003C00008F49CCFB80188E050DFB80180E24DDF2F
:1003D000B80188E04ADFE1E08E1A91088FCFB801BA
:1003E0008DE043DFFAE68F16F1E09F0609F008F48E
:1003F00085CF0F2EFAE6EF2EF1E0FF2EF02DB8019B
:10040000F70181917F0131DF8E149F04C1F776CF10
:10041000B80188E02ADFB80180E227DFB80188E070
:1004200024DFF1E08F1A91088AE6881681E09806A9
:1004300079F7F30131964F0161CF7401F1E0EF1AC2
:10044000F108B80188E011DFB80180E20EDFB801E1
:1004500088E00BDF4701AE14BF0409F44FCFF7016A
:1004600082917F01803269F749CFE091BA01F09122
:10047000BB01CF0101969093BB018093BA018081AB
:100480008A3021F41092BB011092BA0190E008C0AA
:100490008EEF9FEF05C08FEF9FEF02C08FEF9FEFB2
:1004A000DF91CF911F910F91FF90EF90DF90CF9050
:1004B000BF90AF909F908F907F906F900895109213
:1004C000C50080E18093C40088E18093C10086E08C
:1004D0008093C200ECEBF1E080E091E091838083B7
:1004E00093838283089595B184B180628F7784B9B4
:1004F000892F806A85B9089504C061507109810906
:1005000091096115710581059105B9F70895CF939A
:10051000DF93CDB7DEB72C970FB6F894DEBF0FBED2
:10052000CDBFE1DFCCDF81E391E06FD08FDE80E0F3
:10053000C5DD1F928F9384E591E09F938F9352D0F6
:100540000F900F900F900F9004E511E080E0B6DD62
:100550001F928F931F930F9345D0AE01475F5F4F5C
:10056000BE016B5F7F4FCE01019621DE66E578E527
:1005700084E190E0C1DF0F900F900F900F90E6CFD5
:10058000A0E0B0E0E5ECF2E0F8C25B014A017901DD
:10059000D90113962C9121FF1DC0C0E0D0E0C815F1
:1005A000D905D9F08C016C01CA0CDB1CC8010C15F3
:1005B0001D0571F00F5F1F4FD7011896ED91FC914B
:1005C0001997B701DC018C910995892B79F305C046
:1005D0002196E5CF80E090E001C0CE01CDB7DEB737
:1005E000ECE0E7C2A0E0B0E0E7EFF2E0D0C2AE019D
:1005F0004B5F5F4FFA0161917191AF018091BE0134
:100600009091BF0132D0E2E0DEC20F931F93CF93EF
:10061000DF93E091BE01F091BF01238121FF1BC058
:100620008C01D0E0C0E0F80181918F016091BE01A2
:100630007091BF01DB011896ED91FC911997882309
:1006400031F00995892B79F3DFEFCFEFECCF8AE01A
:100650000995892B19F08FEF9FEF02C08D2F9C2FEA
:10066000DF91CF911F910F910895ABE0B0E0EAE3E5
:10067000F3E07DC26C017B018A01FC0117821682C6
:10068000838181FFBFC1CE0101963C01F6019381B8
:10069000F70193FD859193FF81917F01882309F4F0
:1006A000ADC1853239F493FD859193FF81917F012E
:1006B000853221F4B60190E0C0D1E8CF912C212CF5
:1006C000312CFFE1F315D8F08B3279F038F4803219
:1006D00079F08332A1F4232D20611DC08D3261F0A9
:1006E000803369F4232D216016C0832D8260382E5B
:1006F000E32DE4603E2E2AC0F32DF8601DC037FCC8
:100700002DC020ED280F2A3040F08E32B9F436FC8F
:1007100075C1232D2064322E19C036FE06C08AE032
:10072000989E200D1124922E11C0EAE02E9E200DDD
:100730001124222EF32DF0623F2E08C08C3621F4B6
:10074000832D8068382E02C0883641F4F70193FD6E
:10075000859193FF81917F018111B3CF982F9F7D68
:100760009554933028F40C5F1F4F9FE399830DC07D
:10077000833631F0833771F0833509F055C020C0DE
:10078000F801808189830E5F1F4F88248394912C08
:10079000530112C02801F2E04F0E511CF801A08055
:1007A000B18036FE03C0692D70E002C06FEF7FEFAD
:1007B000C50138D14C018201F32DFF773F2E15C0C2
:1007C000280122E0420E511CF801A080B18036FEC3
:1007D00003C0692D70E002C06FEF7FEFC50117D134
:1007E0004C01F32DF0683F2E820133FC19C0822D9D
:1007F00090E088169906A0F4B60180E290E01DD141
:100800002A94F5CFF50137FC859137FE81915F0180
:10081000B60190E012D121102A9421E0821A9108A9
:100820008114910479F7E1C0843611F0893639F5E5
:10083000F80137FE07C060817181828193810C5F6E
:100840001F4F08C060817181072E000C880B990B27
:100850000E5F1F4FF32DFF763F2E97FF09C0909537
:100860008095709561957F4F8F4F9F4FF0683F2E19
:100870002AE030E0A3011DD1882E861844C08537B8
:1008800031F4232D2F7EB22E2AE030E025C0932DA7
:10089000997FB92E8F36C1F018F4883579F0AEC043
:1008A000803719F0883721F0A9C0E92FE061BE2E0A
:1008B000B4FE0DC0FB2DF460BF2E09C034FE0AC08B
:1008C000292F2660B22E06C028E030E005C020E1C6
:1008D00030E002C020E132E0F801B7FE07C06081DD
:1008E0007181828193810C5F1F4F06C0608171818D
:1008F00080E090E00E5F1F4FA301DBD0882E8618AA
:10090000FB2DFF773F2E36FE0DC0232D2E7FA22E0E
:10091000891458F434FE0BC032FC09C0832D8E7E3E
:10092000A82E05C0B82CA32C03C0B82C01C0B92C2C
:10093000A4FE0FC0FE01E80DF11D8081803321F47B
:100940009A2D997EA92E09C0A2FE06C0B394B39435
:1009500004C08A2D867809F0B394A3FC10C0A0FED1
:1009600006C0B21480F4280C922C9B180DC0B2144F
:1009700058F4B60180E290E060D0B394F8CFB2149E
:1009800018F42B1802C0982C212CA4FE0FC0B6011D
:1009900080E390E052D0A2FE16C0A1FC03C088E71D
:1009A00090E002C088E590E0B6010CC08A2D867800
:1009B00051F0A1FE02C08BE201C080E2A7FC8DE2F3
:1009C000B60190E03AD0891430F4B60180E390E0AB
:1009D00034D09A94F8CF8A94F301E80DF11D808108
:1009E000B60190E02AD08110F6CF222009F44ECE35
:1009F000B60180E290E021D02A94F7CFF6018681FB
:100A0000978102C08FEF9FEF2B96E2E1CCC0FC01F3
:100A10000590615070400110D8F7809590958E0F29
:100A20009F1F0895FC016150704001900110D8F79C
:100A3000809590958E0F9F1F08950F931F93CF93CE
:100A4000DF93FB01238121FD03C08FEF9FEF2CC0BB
:100A500022FF16C0468157812481358142175307F2
:100A600044F4A081B1819D012F5F3F4F31832083EA
:100A70008C93268137812F5F3F4F3783268314C0A5
:100A80008B01EC01FB010084F185E02D0995892B98
:100A9000E1F6D80116968D919C91179701961796BD
:100AA0009C938E931697CE01DF91CF911F910F915A
:100AB0000895FA01AA27283051F1203181F1E894F4
:100AC0006F936E7F6E5F7F4F8F4F9F4FAF4FB1E041
:100AD0003ED0B4E03CD0670F781F891F9A1FA11D3C
:100AE000680F791F8A1F911DA11D6A0F711D811D3D
:100AF000911DA11D20D009F468943F912AE0269F02
:100B000011243019305D3193DEF6CF010895462F60
:100B10004770405D4193B3E00FD0C9F7F6CF462F41
:100B20004F70405D4A3318F0495D31FD40524193AA
:100B300002D0A9F7EACFB4E0A69597958795779567
:100B40006795BA95C9F700976105710508959B01EE
:100B5000AC010A2E06945795479537952795BA9577
:100B6000C9F7620F731F841F951FA01D08952F9250
:100B70003F924F925F926F927F928F929F92AF922D
:100B8000BF92CF92DF92EF92FF920F931F93CF937A
:100B9000DF93CDB7DEB7CA1BDB0B0FB6F894DEBF11
:100BA0000FBECDBF09942A88398848885F846E8437
:100BB0007D848C849B84AA84B984C884DF80EE8081
:100BC000FD800C811B81AA81B981CE0FD11D0FB68A
:100BD000F894DEBF0FBECDBFED010895F894FFCFAE
:100BE00000000003000000003501540100004279BC
:100BF000746520313A2025640D0A0042797465201D
:100C000025643A2025640D0A002A72696E672A0A53
:100C1000002D2D2D2D2D2D2D2044656661756C74B4
:100C20002074657374696E67202D2D2D2D2D2D2D4B
:100C30000D0A0D0053656E736F722069643A20309F
:080C40007825780D0A0D0A0069
:00000001FF
